{
  "_format": "hh-sol-artifact-1",
  "contractName": "Patent",
  "sourceName": "contracts/Patent.sol",
  "abi": [
    {
      "inputs": [],
      "stateMutability": "nonpayable",
      "type": "constructor"
    },
    {
      "anonymous": false,
      "inputs": [
        {
          "indexed": true,
          "internalType": "address",
          "name": "owner",
          "type": "address"
        },
        {
          "indexed": true,
          "internalType": "address",
          "name": "approved",
          "type": "address"
        },
        {
          "indexed": true,
          "internalType": "uint256",
          "name": "tokenId",
          "type": "uint256"
        }
      ],
      "name": "Approval",
      "type": "event"
    },
    {
      "anonymous": false,
      "inputs": [
        {
          "indexed": true,
          "internalType": "address",
          "name": "owner",
          "type": "address"
        },
        {
          "indexed": true,
          "internalType": "address",
          "name": "operator",
          "type": "address"
        },
        {
          "indexed": false,
          "internalType": "bool",
          "name": "approved",
          "type": "bool"
        }
      ],
      "name": "ApprovalForAll",
      "type": "event"
    },
    {
      "anonymous": false,
      "inputs": [
        {
          "indexed": true,
          "internalType": "address",
          "name": "previousOwner",
          "type": "address"
        },
        {
          "indexed": true,
          "internalType": "address",
          "name": "newOwner",
          "type": "address"
        }
      ],
      "name": "OwnershipTransferred",
      "type": "event"
    },
    {
      "anonymous": false,
      "inputs": [
        {
          "indexed": true,
          "internalType": "address",
          "name": "from",
          "type": "address"
        },
        {
          "indexed": true,
          "internalType": "address",
          "name": "to",
          "type": "address"
        },
        {
          "indexed": true,
          "internalType": "uint256",
          "name": "tokenId",
          "type": "uint256"
        }
      ],
      "name": "Transfer",
      "type": "event"
    },
    {
      "inputs": [
        {
          "internalType": "address[]",
          "name": "toAddAddresses",
          "type": "address[]"
        }
      ],
      "name": "addToBrightlist",
      "outputs": [],
      "stateMutability": "nonpayable",
      "type": "function"
    },
    {
      "inputs": [
        {
          "internalType": "address",
          "name": "to",
          "type": "address"
        },
        {
          "internalType": "uint256",
          "name": "tokenId",
          "type": "uint256"
        }
      ],
      "name": "approve",
      "outputs": [],
      "stateMutability": "nonpayable",
      "type": "function"
    },
    {
      "inputs": [
        {
          "internalType": "address",
          "name": "owner",
          "type": "address"
        }
      ],
      "name": "balanceOf",
      "outputs": [
        {
          "internalType": "uint256",
          "name": "",
          "type": "uint256"
        }
      ],
      "stateMutability": "view",
      "type": "function"
    },
    {
      "inputs": [
        {
          "internalType": "address",
          "name": "",
          "type": "address"
        }
      ],
      "name": "brightlist",
      "outputs": [
        {
          "internalType": "bool",
          "name": "",
          "type": "bool"
        }
      ],
      "stateMutability": "view",
      "type": "function"
    },
    {
      "inputs": [
        {
          "internalType": "uint256",
          "name": "tokenId",
          "type": "uint256"
        }
      ],
      "name": "getApproved",
      "outputs": [
        {
          "internalType": "address",
          "name": "",
          "type": "address"
        }
      ],
      "stateMutability": "view",
      "type": "function"
    },
    {
      "inputs": [
        {
          "internalType": "address",
          "name": "owner",
          "type": "address"
        },
        {
          "internalType": "address",
          "name": "operator",
          "type": "address"
        }
      ],
      "name": "isApprovedForAll",
      "outputs": [
        {
          "internalType": "bool",
          "name": "",
          "type": "bool"
        }
      ],
      "stateMutability": "view",
      "type": "function"
    },
    {
      "inputs": [
        {
          "internalType": "address",
          "name": "who",
          "type": "address"
        },
        {
          "internalType": "string",
          "name": "tokenURI",
          "type": "string"
        }
      ],
      "name": "mint",
      "outputs": [
        {
          "internalType": "uint256",
          "name": "",
          "type": "uint256"
        }
      ],
      "stateMutability": "nonpayable",
      "type": "function"
    },
    {
      "inputs": [],
      "name": "name",
      "outputs": [
        {
          "internalType": "string",
          "name": "",
          "type": "string"
        }
      ],
      "stateMutability": "view",
      "type": "function"
    },
    {
      "inputs": [],
      "name": "owner",
      "outputs": [
        {
          "internalType": "address",
          "name": "",
          "type": "address"
        }
      ],
      "stateMutability": "view",
      "type": "function"
    },
    {
      "inputs": [
        {
          "internalType": "uint256",
          "name": "tokenId",
          "type": "uint256"
        }
      ],
      "name": "ownerOf",
      "outputs": [
        {
          "internalType": "address",
          "name": "",
          "type": "address"
        }
      ],
      "stateMutability": "view",
      "type": "function"
    },
    {
      "inputs": [
        {
          "internalType": "address[]",
          "name": "toRemoveAddresses",
          "type": "address[]"
        }
      ],
      "name": "removeFromBrightlist",
      "outputs": [],
      "stateMutability": "nonpayable",
      "type": "function"
    },
    {
      "inputs": [],
      "name": "renounceOwnership",
      "outputs": [],
      "stateMutability": "nonpayable",
      "type": "function"
    },
    {
      "inputs": [
        {
          "internalType": "address",
          "name": "from",
          "type": "address"
        },
        {
          "internalType": "address",
          "name": "to",
          "type": "address"
        },
        {
          "internalType": "uint256",
          "name": "tokenId",
          "type": "uint256"
        }
      ],
      "name": "safeTransferFrom",
      "outputs": [],
      "stateMutability": "nonpayable",
      "type": "function"
    },
    {
      "inputs": [
        {
          "internalType": "address",
          "name": "from",
          "type": "address"
        },
        {
          "internalType": "address",
          "name": "to",
          "type": "address"
        },
        {
          "internalType": "uint256",
          "name": "tokenId",
          "type": "uint256"
        },
        {
          "internalType": "bytes",
          "name": "data",
          "type": "bytes"
        }
      ],
      "name": "safeTransferFrom",
      "outputs": [],
      "stateMutability": "nonpayable",
      "type": "function"
    },
    {
      "inputs": [
        {
          "internalType": "address",
          "name": "operator",
          "type": "address"
        },
        {
          "internalType": "bool",
          "name": "approved",
          "type": "bool"
        }
      ],
      "name": "setApprovalForAll",
      "outputs": [],
      "stateMutability": "nonpayable",
      "type": "function"
    },
    {
      "inputs": [
        {
          "internalType": "bytes4",
          "name": "interfaceId",
          "type": "bytes4"
        }
      ],
      "name": "supportsInterface",
      "outputs": [
        {
          "internalType": "bool",
          "name": "",
          "type": "bool"
        }
      ],
      "stateMutability": "view",
      "type": "function"
    },
    {
      "inputs": [],
      "name": "symbol",
      "outputs": [
        {
          "internalType": "string",
          "name": "",
          "type": "string"
        }
      ],
      "stateMutability": "view",
      "type": "function"
    },
    {
      "inputs": [
        {
          "internalType": "uint256",
          "name": "tokenId",
          "type": "uint256"
        }
      ],
      "name": "tokenURI",
      "outputs": [
        {
          "internalType": "string",
          "name": "",
          "type": "string"
        }
      ],
      "stateMutability": "view",
      "type": "function"
    },
    {
      "inputs": [
        {
          "internalType": "address",
          "name": "from",
          "type": "address"
        },
        {
          "internalType": "address",
          "name": "to",
          "type": "address"
        },
        {
          "internalType": "uint256",
          "name": "tokenId",
          "type": "uint256"
        }
      ],
      "name": "transferFrom",
      "outputs": [],
      "stateMutability": "nonpayable",
      "type": "function"
    },
    {
      "inputs": [
        {
          "internalType": "address",
          "name": "newOwner",
          "type": "address"
        }
      ],
      "name": "transferOwnership",
      "outputs": [],
      "stateMutability": "nonpayable",
      "type": "function"
    }
  ],
  "bytecode": "0x60806040523480156200001157600080fd5b506040518060400160405280600681526020017f506174656e7400000000000000000000000000000000000000000000000000008152506040518060400160405280600381526020017f504154000000000000000000000000000000000000000000000000000000000081525081600090816200008f919062000412565b508060019081620000a1919062000412565b505050620000c4620000b8620000ca60201b60201c565b620000d260201b60201c565b620004f9565b600033905090565b6000600760009054906101000a900473ffffffffffffffffffffffffffffffffffffffff16905081600760006101000a81548173ffffffffffffffffffffffffffffffffffffffff021916908373ffffffffffffffffffffffffffffffffffffffff1602179055508173ffffffffffffffffffffffffffffffffffffffff168173ffffffffffffffffffffffffffffffffffffffff167f8be0079c531659141344cd1fd0a4f28419497f9722a3daafe3b4186f6b6457e060405160405180910390a35050565b600081519050919050565b7f4e487b7100000000000000000000000000000000000000000000000000000000600052604160045260246000fd5b7f4e487b7100000000000000000000000000000000000000000000000000000000600052602260045260246000fd5b600060028204905060018216806200021a57607f821691505b60208210810362000230576200022f620001d2565b5b50919050565b60008190508160005260206000209050919050565b60006020601f8301049050919050565b600082821b905092915050565b6000600883026200029a7fffffffffffffffffffffffffffffffffffffffffffffffffffffffffffffffff826200025b565b620002a686836200025b565b95508019841693508086168417925050509392505050565b6000819050919050565b6000819050919050565b6000620002f3620002ed620002e784620002be565b620002c8565b620002be565b9050919050565b6000819050919050565b6200030f83620002d2565b620003276200031e82620002fa565b84845462000268565b825550505050565b600090565b6200033e6200032f565b6200034b81848462000304565b505050565b5b8181101562000373576200036760008262000334565b60018101905062000351565b5050565b601f821115620003c2576200038c8162000236565b62000397846200024b565b81016020851015620003a7578190505b620003bf620003b6856200024b565b83018262000350565b50505b505050565b600082821c905092915050565b6000620003e760001984600802620003c7565b1980831691505092915050565b6000620004028383620003d4565b9150826002028217905092915050565b6200041d8262000198565b67ffffffffffffffff811115620004395762000438620001a3565b5b62000445825462000201565b6200045282828562000377565b600060209050601f8311600181146200048a576000841562000475578287015190505b620004818582620003f4565b865550620004f1565b601f1984166200049a8662000236565b60005b82811015620004c4578489015182556001820191506020850194506020810190506200049d565b86831015620004e45784890151620004e0601f891682620003d4565b8355505b6001600288020188555050505b505050505050565b61318d80620005096000396000f3fe608060405234801561001057600080fd5b506004361061012c5760003560e01c806370a08231116100ad578063b88d4fde11610071578063b88d4fde1461032d578063c87b56dd14610349578063d0def52114610379578063e985e9c5146103a9578063f2fde38b146103d95761012c565b806370a082311461029b578063715018a6146102cb5780638da5cb5b146102d557806395d89b41146102f3578063a22cb465146103115761012c565b806324b24ff3116100f457806324b24ff3146101e757806342842e0e1461020357806343c9be501461021f57806347de35201461024f5780636352211e1461026b5761012c565b806301ffc9a71461013157806306fdde0314610161578063081812fc1461017f578063095ea7b3146101af57806323b872dd146101cb575b600080fd5b61014b60048036038101906101469190611cf5565b6103f5565b6040516101589190611d3d565b60405180910390f35b6101696104d7565b6040516101769190611de8565b60405180910390f35b61019960048036038101906101949190611e40565b610569565b6040516101a69190611eae565b60405180910390f35b6101c960048036038101906101c49190611ef5565b6105af565b005b6101e560048036038101906101e09190611f35565b6106c6565b005b61020160048036038101906101fc9190611fed565b610726565b005b61021d60048036038101906102189190611f35565b6107ca565b005b6102396004803603810190610234919061203a565b6107ea565b6040516102469190611d3d565b60405180910390f35b61026960048036038101906102649190611fed565b61080a565b005b61028560048036038101906102809190611e40565b6108b7565b6040516102929190611eae565b60405180910390f35b6102b560048036038101906102b0919061203a565b610968565b6040516102c29190612076565b60405180910390f35b6102d3610a1f565b005b6102dd610a33565b6040516102ea9190611eae565b60405180910390f35b6102fb610a5d565b6040516103089190611de8565b60405180910390f35b61032b600480360381019061032691906120bd565b610aef565b005b6103476004803603810190610342919061222d565b610b05565b005b610363600480360381019061035e9190611e40565b610b67565b6040516103709190611de8565b60405180910390f35b610393600480360381019061038e9190612351565b610c79565b6040516103a09190612076565b60405180910390f35b6103c360048036038101906103be91906123ad565b610d8c565b6040516103d09190611d3d565b60405180910390f35b6103f360048036038101906103ee919061203a565b610e20565b005b60007f80ac58cd000000000000000000000000000000000000000000000000000000007bffffffffffffffffffffffffffffffffffffffffffffffffffffffff1916827bffffffffffffffffffffffffffffffffffffffffffffffffffffffff191614806104c057507f5b5e139f000000000000000000000000000000000000000000000000000000007bffffffffffffffffffffffffffffffffffffffffffffffffffffffff1916827bffffffffffffffffffffffffffffffffffffffffffffffffffffffff1916145b806104d057506104cf82610ea3565b5b9050919050565b6060600080546104e69061241c565b80601f01602080910402602001604051908101604052809291908181526020018280546105129061241c565b801561055f5780601f106105345761010080835404028352916020019161055f565b820191906000526020600020905b81548152906001019060200180831161054257829003601f168201915b5050505050905090565b600061057482610f0d565b6004600083815260200190815260200160002060009054906101000a900473ffffffffffffffffffffffffffffffffffffffff169050919050565b60006105ba826108b7565b90508073ffffffffffffffffffffffffffffffffffffffff168373ffffffffffffffffffffffffffffffffffffffff160361062a576040517f08c379a0000000000000000000000000000000000000000000000000000000008152600401610621906124bf565b60405180910390fd5b8073ffffffffffffffffffffffffffffffffffffffff16610649610f58565b73ffffffffffffffffffffffffffffffffffffffff161480610678575061067781610672610f58565b610d8c565b5b6106b7576040517f08c379a00000000000000000000000000000000000000000000000000000000081526004016106ae90612551565b60405180910390fd5b6106c18383610f60565b505050565b6106d76106d1610f58565b82611019565b610716576040517f08c379a000000000000000000000000000000000000000000000000000000000815260040161070d906125e3565b60405180910390fd5b6107218383836110ae565b505050565b61072e611314565b60005b828290508110156107c5576009600084848481811061075357610752612603565b5b9050602002016020810190610768919061203a565b73ffffffffffffffffffffffffffffffffffffffff1673ffffffffffffffffffffffffffffffffffffffff16815260200190815260200160002060006101000a81549060ff021916905580806107bd90612661565b915050610731565b505050565b6107e583838360405180602001604052806000815250610b05565b505050565b60096020528060005260406000206000915054906101000a900460ff1681565b610812611314565b60005b828290508110156108b25760016009600085858581811061083957610838612603565b5b905060200201602081019061084e919061203a565b73ffffffffffffffffffffffffffffffffffffffff1673ffffffffffffffffffffffffffffffffffffffff16815260200190815260200160002060006101000a81548160ff02191690831515021790555080806108aa90612661565b915050610815565b505050565b6000806002600084815260200190815260200160002060009054906101000a900473ffffffffffffffffffffffffffffffffffffffff169050600073ffffffffffffffffffffffffffffffffffffffff168173ffffffffffffffffffffffffffffffffffffffff160361095f576040517f08c379a0000000000000000000000000000000000000000000000000000000008152600401610956906126f5565b60405180910390fd5b80915050919050565b60008073ffffffffffffffffffffffffffffffffffffffff168273ffffffffffffffffffffffffffffffffffffffff16036109d8576040517f08c379a00000000000000000000000000000000000000000000000000000000081526004016109cf90612787565b60405180910390fd5b600360008373ffffffffffffffffffffffffffffffffffffffff1673ffffffffffffffffffffffffffffffffffffffff168152602001908152602001600020549050919050565b610a27611314565b610a316000611392565b565b6000600760009054906101000a900473ffffffffffffffffffffffffffffffffffffffff16905090565b606060018054610a6c9061241c565b80601f0160208091040260200160405190810160405280929190818152602001828054610a989061241c565b8015610ae55780601f10610aba57610100808354040283529160200191610ae5565b820191906000526020600020905b815481529060010190602001808311610ac857829003601f168201915b5050505050905090565b610b01610afa610f58565b8383611458565b5050565b610b16610b10610f58565b83611019565b610b55576040517f08c379a0000000000000000000000000000000000000000000000000000000008152600401610b4c906125e3565b60405180910390fd5b610b61848484846115c4565b50505050565b6060610b7282610f0d565b6000600660008481526020019081526020016000208054610b929061241c565b80601f0160208091040260200160405190810160405280929190818152602001828054610bbe9061241c565b8015610c0b5780601f10610be057610100808354040283529160200191610c0b565b820191906000526020600020905b815481529060010190602001808311610bee57829003601f168201915b505050505090506000610c1c611620565b90506000815103610c31578192505050610c74565b600082511115610c66578082604051602001610c4e9291906127e3565b60405160208183030381529060405292505050610c74565b610c6f84611637565b925050505b919050565b6000600960003373ffffffffffffffffffffffffffffffffffffffff1673ffffffffffffffffffffffffffffffffffffffff16815260200190815260200160002060009054906101000a900460ff16610d07576040517f08c379a0000000000000000000000000000000000000000000000000000000008152600401610cfe90612853565b60405180910390fd5b610d11600861169f565b6000610d1d60086116b5565b9050610d2984826116c3565b610d33818461189c565b600960008573ffffffffffffffffffffffffffffffffffffffff1673ffffffffffffffffffffffffffffffffffffffff16815260200190815260200160002060006101000a81549060ff02191690558091505092915050565b6000600560008473ffffffffffffffffffffffffffffffffffffffff1673ffffffffffffffffffffffffffffffffffffffff16815260200190815260200160002060008373ffffffffffffffffffffffffffffffffffffffff1673ffffffffffffffffffffffffffffffffffffffff16815260200190815260200160002060009054906101000a900460ff16905092915050565b610e28611314565b600073ffffffffffffffffffffffffffffffffffffffff168173ffffffffffffffffffffffffffffffffffffffff1603610e97576040517f08c379a0000000000000000000000000000000000000000000000000000000008152600401610e8e906128e5565b60405180910390fd5b610ea081611392565b50565b60007f01ffc9a7000000000000000000000000000000000000000000000000000000007bffffffffffffffffffffffffffffffffffffffffffffffffffffffff1916827bffffffffffffffffffffffffffffffffffffffffffffffffffffffff1916149050919050565b610f1681611909565b610f55576040517f08c379a0000000000000000000000000000000000000000000000000000000008152600401610f4c906126f5565b60405180910390fd5b50565b600033905090565b816004600083815260200190815260200160002060006101000a81548173ffffffffffffffffffffffffffffffffffffffff021916908373ffffffffffffffffffffffffffffffffffffffff160217905550808273ffffffffffffffffffffffffffffffffffffffff16610fd3836108b7565b73ffffffffffffffffffffffffffffffffffffffff167f8c5be1e5ebec7d5bd14f71427d1e84f3dd0314c0f7b2291e5b200ac8c7c3b92560405160405180910390a45050565b600080611025836108b7565b90508073ffffffffffffffffffffffffffffffffffffffff168473ffffffffffffffffffffffffffffffffffffffff16148061106757506110668185610d8c565b5b806110a557508373ffffffffffffffffffffffffffffffffffffffff1661108d84610569565b73ffffffffffffffffffffffffffffffffffffffff16145b91505092915050565b8273ffffffffffffffffffffffffffffffffffffffff166110ce826108b7565b73ffffffffffffffffffffffffffffffffffffffff1614611124576040517f08c379a000000000000000000000000000000000000000000000000000000000815260040161111b90612977565b60405180910390fd5b600073ffffffffffffffffffffffffffffffffffffffff168273ffffffffffffffffffffffffffffffffffffffff1603611193576040517f08c379a000000000000000000000000000000000000000000000000000000000815260040161118a90612a09565b60405180910390fd5b61119e838383611975565b6111a9600082610f60565b6001600360008573ffffffffffffffffffffffffffffffffffffffff1673ffffffffffffffffffffffffffffffffffffffff16815260200190815260200160002060008282546111f99190612a29565b925050819055506001600360008473ffffffffffffffffffffffffffffffffffffffff1673ffffffffffffffffffffffffffffffffffffffff16815260200190815260200160002060008282546112509190612a5d565b92505081905550816002600083815260200190815260200160002060006101000a81548173ffffffffffffffffffffffffffffffffffffffff021916908373ffffffffffffffffffffffffffffffffffffffff160217905550808273ffffffffffffffffffffffffffffffffffffffff168473ffffffffffffffffffffffffffffffffffffffff167fddf252ad1be2c89b69c2b068fc378daa952ba7f163c4a11628f55a4df523b3ef60405160405180910390a461130f83838361197a565b505050565b61131c610f58565b73ffffffffffffffffffffffffffffffffffffffff1661133a610a33565b73ffffffffffffffffffffffffffffffffffffffff1614611390576040517f08c379a000000000000000000000000000000000000000000000000000000000815260040161138790612add565b60405180910390fd5b565b6000600760009054906101000a900473ffffffffffffffffffffffffffffffffffffffff16905081600760006101000a81548173ffffffffffffffffffffffffffffffffffffffff021916908373ffffffffffffffffffffffffffffffffffffffff1602179055508173ffffffffffffffffffffffffffffffffffffffff168173ffffffffffffffffffffffffffffffffffffffff167f8be0079c531659141344cd1fd0a4f28419497f9722a3daafe3b4186f6b6457e060405160405180910390a35050565b8173ffffffffffffffffffffffffffffffffffffffff168373ffffffffffffffffffffffffffffffffffffffff16036114c6576040517f08c379a00000000000000000000000000000000000000000000000000000000081526004016114bd90612b49565b60405180910390fd5b80600560008573ffffffffffffffffffffffffffffffffffffffff1673ffffffffffffffffffffffffffffffffffffffff16815260200190815260200160002060008473ffffffffffffffffffffffffffffffffffffffff1673ffffffffffffffffffffffffffffffffffffffff16815260200190815260200160002060006101000a81548160ff0219169083151502179055508173ffffffffffffffffffffffffffffffffffffffff168373ffffffffffffffffffffffffffffffffffffffff167f17307eab39ab6107e8899845ad3d59bd9653f200f220920489ca2b5937696c31836040516115b79190611d3d565b60405180910390a3505050565b6115cf8484846110ae565b6115db8484848461197f565b61161a576040517f08c379a000000000000000000000000000000000000000000000000000000000815260040161161190612bdb565b60405180910390fd5b50505050565b606060405180602001604052806000815250905090565b606061164282610f0d565b600061164c611620565b9050600081511161166c5760405180602001604052806000815250611697565b8061167684611b06565b6040516020016116879291906127e3565b6040516020818303038152906040525b915050919050565b6001816000016000828254019250508190555050565b600081600001549050919050565b600073ffffffffffffffffffffffffffffffffffffffff168273ffffffffffffffffffffffffffffffffffffffff1603611732576040517f08c379a000000000000000000000000000000000000000000000000000000000815260040161172990612c47565b60405180910390fd5b61173b81611909565b1561177b576040517f08c379a000000000000000000000000000000000000000000000000000000000815260040161177290612cb3565b60405180910390fd5b61178760008383611975565b6001600360008473ffffffffffffffffffffffffffffffffffffffff1673ffffffffffffffffffffffffffffffffffffffff16815260200190815260200160002060008282546117d79190612a5d565b92505081905550816002600083815260200190815260200160002060006101000a81548173ffffffffffffffffffffffffffffffffffffffff021916908373ffffffffffffffffffffffffffffffffffffffff160217905550808273ffffffffffffffffffffffffffffffffffffffff16600073ffffffffffffffffffffffffffffffffffffffff167fddf252ad1be2c89b69c2b068fc378daa952ba7f163c4a11628f55a4df523b3ef60405160405180910390a46118986000838361197a565b5050565b6118a582611909565b6118e4576040517f08c379a00000000000000000000000000000000000000000000000000000000081526004016118db90612d45565b60405180910390fd5b806006600084815260200190815260200160002090816119049190612f11565b505050565b60008073ffffffffffffffffffffffffffffffffffffffff166002600084815260200190815260200160002060009054906101000a900473ffffffffffffffffffffffffffffffffffffffff1673ffffffffffffffffffffffffffffffffffffffff1614159050919050565b505050565b505050565b60006119a08473ffffffffffffffffffffffffffffffffffffffff16611c66565b15611af9578373ffffffffffffffffffffffffffffffffffffffff1663150b7a026119c9610f58565b8786866040518563ffffffff1660e01b81526004016119eb9493929190613038565b6020604051808303816000875af1925050508015611a2757506040513d601f19601f82011682018060405250810190611a249190613099565b60015b611aa9573d8060008114611a57576040519150601f19603f3d011682016040523d82523d6000602084013e611a5c565b606091505b506000815103611aa1576040517f08c379a0000000000000000000000000000000000000000000000000000000008152600401611a9890612bdb565b60405180910390fd5b805181602001fd5b63150b7a0260e01b7bffffffffffffffffffffffffffffffffffffffffffffffffffffffff1916817bffffffffffffffffffffffffffffffffffffffffffffffffffffffff191614915050611afe565b600190505b949350505050565b606060008203611b4d576040518060400160405280600181526020017f30000000000000000000000000000000000000000000000000000000000000008152509050611c61565b600082905060005b60008214611b7f578080611b6890612661565b915050600a82611b7891906130f5565b9150611b55565b60008167ffffffffffffffff811115611b9b57611b9a612102565b5b6040519080825280601f01601f191660200182016040528015611bcd5781602001600182028036833780820191505090505b5090505b60008514611c5a57600182611be69190612a29565b9150600a85611bf59190613126565b6030611c019190612a5d565b60f81b818381518110611c1757611c16612603565b5b60200101907effffffffffffffffffffffffffffffffffffffffffffffffffffffffffffff1916908160001a905350600a85611c5391906130f5565b9450611bd1565b8093505050505b919050565b6000808273ffffffffffffffffffffffffffffffffffffffff163b119050919050565b6000604051905090565b600080fd5b600080fd5b60007fffffffff0000000000000000000000000000000000000000000000000000000082169050919050565b611cd281611c9d565b8114611cdd57600080fd5b50565b600081359050611cef81611cc9565b92915050565b600060208284031215611d0b57611d0a611c93565b5b6000611d1984828501611ce0565b91505092915050565b60008115159050919050565b611d3781611d22565b82525050565b6000602082019050611d526000830184611d2e565b92915050565b600081519050919050565b600082825260208201905092915050565b60005b83811015611d92578082015181840152602081019050611d77565b60008484015250505050565b6000601f19601f8301169050919050565b6000611dba82611d58565b611dc48185611d63565b9350611dd4818560208601611d74565b611ddd81611d9e565b840191505092915050565b60006020820190508181036000830152611e028184611daf565b905092915050565b6000819050919050565b611e1d81611e0a565b8114611e2857600080fd5b50565b600081359050611e3a81611e14565b92915050565b600060208284031215611e5657611e55611c93565b5b6000611e6484828501611e2b565b91505092915050565b600073ffffffffffffffffffffffffffffffffffffffff82169050919050565b6000611e9882611e6d565b9050919050565b611ea881611e8d565b82525050565b6000602082019050611ec36000830184611e9f565b92915050565b611ed281611e8d565b8114611edd57600080fd5b50565b600081359050611eef81611ec9565b92915050565b60008060408385031215611f0c57611f0b611c93565b5b6000611f1a85828601611ee0565b9250506020611f2b85828601611e2b565b9150509250929050565b600080600060608486031215611f4e57611f4d611c93565b5b6000611f5c86828701611ee0565b9350506020611f6d86828701611ee0565b9250506040611f7e86828701611e2b565b9150509250925092565b600080fd5b600080fd5b600080fd5b60008083601f840112611fad57611fac611f88565b5b8235905067ffffffffffffffff811115611fca57611fc9611f8d565b5b602083019150836020820283011115611fe657611fe5611f92565b5b9250929050565b6000806020838503121561200457612003611c93565b5b600083013567ffffffffffffffff81111561202257612021611c98565b5b61202e85828601611f97565b92509250509250929050565b6000602082840312156120505761204f611c93565b5b600061205e84828501611ee0565b91505092915050565b61207081611e0a565b82525050565b600060208201905061208b6000830184612067565b92915050565b61209a81611d22565b81146120a557600080fd5b50565b6000813590506120b781612091565b92915050565b600080604083850312156120d4576120d3611c93565b5b60006120e285828601611ee0565b92505060206120f3858286016120a8565b9150509250929050565b600080fd5b7f4e487b7100000000000000000000000000000000000000000000000000000000600052604160045260246000fd5b61213a82611d9e565b810181811067ffffffffffffffff8211171561215957612158612102565b5b80604052505050565b600061216c611c89565b90506121788282612131565b919050565b600067ffffffffffffffff82111561219857612197612102565b5b6121a182611d9e565b9050602081019050919050565b82818337600083830152505050565b60006121d06121cb8461217d565b612162565b9050828152602081018484840111156121ec576121eb6120fd565b5b6121f78482856121ae565b509392505050565b600082601f83011261221457612213611f88565b5b81356122248482602086016121bd565b91505092915050565b6000806000806080858703121561224757612246611c93565b5b600061225587828801611ee0565b945050602061226687828801611ee0565b935050604061227787828801611e2b565b925050606085013567ffffffffffffffff81111561229857612297611c98565b5b6122a4878288016121ff565b91505092959194509250565b600067ffffffffffffffff8211156122cb576122ca612102565b5b6122d482611d9e565b9050602081019050919050565b60006122f46122ef846122b0565b612162565b9050828152602081018484840111156123105761230f6120fd565b5b61231b8482856121ae565b509392505050565b600082601f83011261233857612337611f88565b5b81356123488482602086016122e1565b91505092915050565b6000806040838503121561236857612367611c93565b5b600061237685828601611ee0565b925050602083013567ffffffffffffffff81111561239757612396611c98565b5b6123a385828601612323565b9150509250929050565b600080604083850312156123c4576123c3611c93565b5b60006123d285828601611ee0565b92505060206123e385828601611ee0565b9150509250929050565b7f4e487b7100000000000000000000000000000000000000000000000000000000600052602260045260246000fd5b6000600282049050600182168061243457607f821691505b602082108103612447576124466123ed565b5b50919050565b7f4552433732313a20617070726f76616c20746f2063757272656e74206f776e6560008201527f7200000000000000000000000000000000000000000000000000000000000000602082015250565b60006124a9602183611d63565b91506124b48261244d565b604082019050919050565b600060208201905081810360008301526124d88161249c565b9050919050565b7f4552433732313a20617070726f76652063616c6c6572206973206e6f7420746f60008201527f6b656e206f776e6572206e6f7220617070726f76656420666f7220616c6c0000602082015250565b600061253b603e83611d63565b9150612546826124df565b604082019050919050565b6000602082019050818103600083015261256a8161252e565b9050919050565b7f4552433732313a2063616c6c6572206973206e6f7420746f6b656e206f776e6560008201527f72206e6f7220617070726f766564000000000000000000000000000000000000602082015250565b60006125cd602e83611d63565b91506125d882612571565b604082019050919050565b600060208201905081810360008301526125fc816125c0565b9050919050565b7f4e487b7100000000000000000000000000000000000000000000000000000000600052603260045260246000fd5b7f4e487b7100000000000000000000000000000000000000000000000000000000600052601160045260246000fd5b600061266c82611e0a565b91507fffffffffffffffffffffffffffffffffffffffffffffffffffffffffffffffff820361269e5761269d612632565b5b600182019050919050565b7f4552433732313a20696e76616c696420746f6b656e2049440000000000000000600082015250565b60006126df601883611d63565b91506126ea826126a9565b602082019050919050565b6000602082019050818103600083015261270e816126d2565b9050919050565b7f4552433732313a2061646472657373207a65726f206973206e6f74206120766160008201527f6c6964206f776e65720000000000000000000000000000000000000000000000602082015250565b6000612771602983611d63565b915061277c82612715565b604082019050919050565b600060208201905081810360008301526127a081612764565b9050919050565b600081905092915050565b60006127bd82611d58565b6127c781856127a7565b93506127d7818560208601611d74565b80840191505092915050565b60006127ef82856127b2565b91506127fb82846127b2565b91508190509392505050565b7f4e4f545f494e5f4252494748544c495354000000000000000000000000000000600082015250565b600061283d601183611d63565b915061284882612807565b602082019050919050565b6000602082019050818103600083015261286c81612830565b9050919050565b7f4f776e61626c653a206e6577206f776e657220697320746865207a65726f206160008201527f6464726573730000000000000000000000000000000000000000000000000000602082015250565b60006128cf602683611d63565b91506128da82612873565b604082019050919050565b600060208201905081810360008301526128fe816128c2565b9050919050565b7f4552433732313a207472616e736665722066726f6d20696e636f72726563742060008201527f6f776e6572000000000000000000000000000000000000000000000000000000602082015250565b6000612961602583611d63565b915061296c82612905565b604082019050919050565b6000602082019050818103600083015261299081612954565b9050919050565b7f4552433732313a207472616e7366657220746f20746865207a65726f2061646460008201527f7265737300000000000000000000000000000000000000000000000000000000602082015250565b60006129f3602483611d63565b91506129fe82612997565b604082019050919050565b60006020820190508181036000830152612a22816129e6565b9050919050565b6000612a3482611e0a565b9150612a3f83611e0a565b9250828203905081811115612a5757612a56612632565b5b92915050565b6000612a6882611e0a565b9150612a7383611e0a565b9250828201905080821115612a8b57612a8a612632565b5b92915050565b7f4f776e61626c653a2063616c6c6572206973206e6f7420746865206f776e6572600082015250565b6000612ac7602083611d63565b9150612ad282612a91565b602082019050919050565b60006020820190508181036000830152612af681612aba565b9050919050565b7f4552433732313a20617070726f766520746f2063616c6c657200000000000000600082015250565b6000612b33601983611d63565b9150612b3e82612afd565b602082019050919050565b60006020820190508181036000830152612b6281612b26565b9050919050565b7f4552433732313a207472616e7366657220746f206e6f6e20455243373231526560008201527f63656976657220696d706c656d656e7465720000000000000000000000000000602082015250565b6000612bc5603283611d63565b9150612bd082612b69565b604082019050919050565b60006020820190508181036000830152612bf481612bb8565b9050919050565b7f4552433732313a206d696e7420746f20746865207a65726f2061646472657373600082015250565b6000612c31602083611d63565b9150612c3c82612bfb565b602082019050919050565b60006020820190508181036000830152612c6081612c24565b9050919050565b7f4552433732313a20746f6b656e20616c7265616479206d696e74656400000000600082015250565b6000612c9d601c83611d63565b9150612ca882612c67565b602082019050919050565b60006020820190508181036000830152612ccc81612c90565b9050919050565b7f45524337323155524953746f726167653a2055524920736574206f66206e6f6e60008201527f6578697374656e7420746f6b656e000000000000000000000000000000000000602082015250565b6000612d2f602e83611d63565b9150612d3a82612cd3565b604082019050919050565b60006020820190508181036000830152612d5e81612d22565b9050919050565b60008190508160005260206000209050919050565b60006020601f8301049050919050565b600082821b905092915050565b600060088302612dc77fffffffffffffffffffffffffffffffffffffffffffffffffffffffffffffffff82612d8a565b612dd18683612d8a565b95508019841693508086168417925050509392505050565b6000819050919050565b6000612e0e612e09612e0484611e0a565b612de9565b611e0a565b9050919050565b6000819050919050565b612e2883612df3565b612e3c612e3482612e15565b848454612d97565b825550505050565b600090565b612e51612e44565b612e5c818484612e1f565b505050565b5b81811015612e8057612e75600082612e49565b600181019050612e62565b5050565b601f821115612ec557612e9681612d65565b612e9f84612d7a565b81016020851015612eae578190505b612ec2612eba85612d7a565b830182612e61565b50505b505050565b600082821c905092915050565b6000612ee860001984600802612eca565b1980831691505092915050565b6000612f018383612ed7565b9150826002028217905092915050565b612f1a82611d58565b67ffffffffffffffff811115612f3357612f32612102565b5b612f3d825461241c565b612f48828285612e84565b600060209050601f831160018114612f7b5760008415612f69578287015190505b612f738582612ef5565b865550612fdb565b601f198416612f8986612d65565b60005b82811015612fb157848901518255600182019150602085019450602081019050612f8c565b86831015612fce5784890151612fca601f891682612ed7565b8355505b6001600288020188555050505b505050505050565b600081519050919050565b600082825260208201905092915050565b600061300a82612fe3565b6130148185612fee565b9350613024818560208601611d74565b61302d81611d9e565b840191505092915050565b600060808201905061304d6000830187611e9f565b61305a6020830186611e9f565b6130676040830185612067565b81810360608301526130798184612fff565b905095945050505050565b60008151905061309381611cc9565b92915050565b6000602082840312156130af576130ae611c93565b5b60006130bd84828501613084565b91505092915050565b7f4e487b7100000000000000000000000000000000000000000000000000000000600052601260045260246000fd5b600061310082611e0a565b915061310b83611e0a565b92508261311b5761311a6130c6565b5b828204905092915050565b600061313182611e0a565b915061313c83611e0a565b92508261314c5761314b6130c6565b5b82820690509291505056fea264697066735822122099af985c7756ad314460a3a076f6d42311f663ec7eb6f816b32675eaca9f833b64736f6c63430008110033",
  "linkReferences": {},
  "deployedLinkReferences": {}
}